{
  "contractName": "Color",
  "abi": [
    {
      "inputs": [],
      "stateMutability": "nonpayable",
      "type": "constructor"
    },
    {
      "anonymous": false,
      "inputs": [
        {
          "indexed": true,
          "internalType": "address",
          "name": "owner",
          "type": "address"
        },
        {
          "indexed": true,
          "internalType": "address",
          "name": "approved",
          "type": "address"
        },
        {
          "indexed": true,
          "internalType": "uint256",
          "name": "tokenId",
          "type": "uint256"
        }
      ],
      "name": "Approval",
      "type": "event"
    },
    {
      "anonymous": false,
      "inputs": [
        {
          "indexed": true,
          "internalType": "address",
          "name": "owner",
          "type": "address"
        },
        {
          "indexed": true,
          "internalType": "address",
          "name": "operator",
          "type": "address"
        },
        {
          "indexed": false,
          "internalType": "bool",
          "name": "approved",
          "type": "bool"
        }
      ],
      "name": "ApprovalForAll",
      "type": "event"
    },
    {
      "anonymous": false,
      "inputs": [
        {
          "indexed": true,
          "internalType": "address",
          "name": "previousOwner",
          "type": "address"
        },
        {
          "indexed": true,
          "internalType": "address",
          "name": "newOwner",
          "type": "address"
        }
      ],
      "name": "OwnershipTransferred",
      "type": "event"
    },
    {
      "anonymous": false,
      "inputs": [
        {
          "indexed": false,
          "internalType": "address",
          "name": "account",
          "type": "address"
        }
      ],
      "name": "Paused",
      "type": "event"
    },
    {
      "anonymous": false,
      "inputs": [
        {
          "indexed": true,
          "internalType": "address",
          "name": "from",
          "type": "address"
        },
        {
          "indexed": true,
          "internalType": "address",
          "name": "to",
          "type": "address"
        },
        {
          "indexed": true,
          "internalType": "uint256",
          "name": "tokenId",
          "type": "uint256"
        }
      ],
      "name": "Transfer",
      "type": "event"
    },
    {
      "anonymous": false,
      "inputs": [
        {
          "indexed": false,
          "internalType": "address",
          "name": "account",
          "type": "address"
        }
      ],
      "name": "Unpaused",
      "type": "event"
    },
    {
      "inputs": [
        {
          "internalType": "address",
          "name": "to",
          "type": "address"
        },
        {
          "internalType": "uint256",
          "name": "tokenId",
          "type": "uint256"
        }
      ],
      "name": "approve",
      "outputs": [],
      "stateMutability": "nonpayable",
      "type": "function"
    },
    {
      "inputs": [
        {
          "internalType": "address",
          "name": "owner",
          "type": "address"
        }
      ],
      "name": "balanceOf",
      "outputs": [
        {
          "internalType": "uint256",
          "name": "",
          "type": "uint256"
        }
      ],
      "stateMutability": "view",
      "type": "function",
      "constant": true
    },
    {
      "inputs": [
        {
          "internalType": "uint256",
          "name": "tokenId",
          "type": "uint256"
        }
      ],
      "name": "burn",
      "outputs": [],
      "stateMutability": "nonpayable",
      "type": "function"
    },
    {
      "inputs": [
        {
          "internalType": "uint256",
          "name": "tokenId",
          "type": "uint256"
        }
      ],
      "name": "getApproved",
      "outputs": [
        {
          "internalType": "address",
          "name": "",
          "type": "address"
        }
      ],
      "stateMutability": "view",
      "type": "function",
      "constant": true
    },
    {
      "inputs": [
        {
          "internalType": "address",
          "name": "owner",
          "type": "address"
        },
        {
          "internalType": "address",
          "name": "operator",
          "type": "address"
        }
      ],
      "name": "isApprovedForAll",
      "outputs": [
        {
          "internalType": "bool",
          "name": "",
          "type": "bool"
        }
      ],
      "stateMutability": "view",
      "type": "function",
      "constant": true
    },
    {
      "inputs": [],
      "name": "name",
      "outputs": [
        {
          "internalType": "string",
          "name": "",
          "type": "string"
        }
      ],
      "stateMutability": "view",
      "type": "function",
      "constant": true
    },
    {
      "inputs": [],
      "name": "owner",
      "outputs": [
        {
          "internalType": "address",
          "name": "",
          "type": "address"
        }
      ],
      "stateMutability": "view",
      "type": "function",
      "constant": true
    },
    {
      "inputs": [
        {
          "internalType": "uint256",
          "name": "tokenId",
          "type": "uint256"
        }
      ],
      "name": "ownerOf",
      "outputs": [
        {
          "internalType": "address",
          "name": "",
          "type": "address"
        }
      ],
      "stateMutability": "view",
      "type": "function",
      "constant": true
    },
    {
      "inputs": [],
      "name": "paused",
      "outputs": [
        {
          "internalType": "bool",
          "name": "",
          "type": "bool"
        }
      ],
      "stateMutability": "view",
      "type": "function",
      "constant": true
    },
    {
      "inputs": [],
      "name": "renounceOwnership",
      "outputs": [],
      "stateMutability": "nonpayable",
      "type": "function"
    },
    {
      "inputs": [
        {
          "internalType": "address",
          "name": "from",
          "type": "address"
        },
        {
          "internalType": "address",
          "name": "to",
          "type": "address"
        },
        {
          "internalType": "uint256",
          "name": "tokenId",
          "type": "uint256"
        }
      ],
      "name": "safeTransferFrom",
      "outputs": [],
      "stateMutability": "nonpayable",
      "type": "function"
    },
    {
      "inputs": [
        {
          "internalType": "address",
          "name": "from",
          "type": "address"
        },
        {
          "internalType": "address",
          "name": "to",
          "type": "address"
        },
        {
          "internalType": "uint256",
          "name": "tokenId",
          "type": "uint256"
        },
        {
          "internalType": "bytes",
          "name": "_data",
          "type": "bytes"
        }
      ],
      "name": "safeTransferFrom",
      "outputs": [],
      "stateMutability": "nonpayable",
      "type": "function"
    },
    {
      "inputs": [
        {
          "internalType": "address",
          "name": "operator",
          "type": "address"
        },
        {
          "internalType": "bool",
          "name": "approved",
          "type": "bool"
        }
      ],
      "name": "setApprovalForAll",
      "outputs": [],
      "stateMutability": "nonpayable",
      "type": "function"
    },
    {
      "inputs": [],
      "name": "symbol",
      "outputs": [
        {
          "internalType": "string",
          "name": "",
          "type": "string"
        }
      ],
      "stateMutability": "view",
      "type": "function",
      "constant": true
    },
    {
      "inputs": [
        {
          "internalType": "uint256",
          "name": "index",
          "type": "uint256"
        }
      ],
      "name": "tokenByIndex",
      "outputs": [
        {
          "internalType": "uint256",
          "name": "",
          "type": "uint256"
        }
      ],
      "stateMutability": "view",
      "type": "function",
      "constant": true
    },
    {
      "inputs": [
        {
          "internalType": "address",
          "name": "owner",
          "type": "address"
        },
        {
          "internalType": "uint256",
          "name": "index",
          "type": "uint256"
        }
      ],
      "name": "tokenOfOwnerByIndex",
      "outputs": [
        {
          "internalType": "uint256",
          "name": "",
          "type": "uint256"
        }
      ],
      "stateMutability": "view",
      "type": "function",
      "constant": true
    },
    {
      "inputs": [
        {
          "internalType": "uint256",
          "name": "tokenId",
          "type": "uint256"
        }
      ],
      "name": "tokenURI",
      "outputs": [
        {
          "internalType": "string",
          "name": "",
          "type": "string"
        }
      ],
      "stateMutability": "view",
      "type": "function",
      "constant": true
    },
    {
      "inputs": [],
      "name": "totalSupply",
      "outputs": [
        {
          "internalType": "uint256",
          "name": "",
          "type": "uint256"
        }
      ],
      "stateMutability": "view",
      "type": "function",
      "constant": true
    },
    {
      "inputs": [
        {
          "internalType": "address",
          "name": "from",
          "type": "address"
        },
        {
          "internalType": "address",
          "name": "to",
          "type": "address"
        },
        {
          "internalType": "uint256",
          "name": "tokenId",
          "type": "uint256"
        }
      ],
      "name": "transferFrom",
      "outputs": [],
      "stateMutability": "nonpayable",
      "type": "function"
    },
    {
      "inputs": [
        {
          "internalType": "address",
          "name": "newOwner",
          "type": "address"
        }
      ],
      "name": "transferOwnership",
      "outputs": [],
      "stateMutability": "nonpayable",
      "type": "function"
    },
    {
      "inputs": [
        {
          "internalType": "string",
          "name": "baseURI",
          "type": "string"
        }
      ],
      "name": "setBaseURI",
      "outputs": [],
      "stateMutability": "nonpayable",
      "type": "function"
    },
    {
      "inputs": [
        {
          "internalType": "uint8",
          "name": "color",
          "type": "uint8"
        },
        {
          "internalType": "string",
          "name": "colorName",
          "type": "string"
        },
        {
          "internalType": "string",
          "name": "title",
          "type": "string"
        }
      ],
      "name": "claim",
      "outputs": [],
      "stateMutability": "payable",
      "type": "function",
      "payable": true
    },
    {
      "inputs": [
        {
          "internalType": "uint256",
          "name": "tokenId",
          "type": "uint256"
        }
      ],
      "name": "getData",
      "outputs": [
        {
          "internalType": "string",
          "name": "colorName",
          "type": "string"
        },
        {
          "internalType": "string",
          "name": "title",
          "type": "string"
        }
      ],
      "stateMutability": "view",
      "type": "function",
      "constant": true
    },
    {
      "inputs": [],
      "name": "pause",
      "outputs": [],
      "stateMutability": "nonpayable",
      "type": "function"
    },
    {
      "inputs": [],
      "name": "unpause",
      "outputs": [],
      "stateMutability": "nonpayable",
      "type": "function"
    },
    {
      "inputs": [
        {
          "internalType": "bytes4",
          "name": "interfaceId",
          "type": "bytes4"
        }
      ],
      "name": "supportsInterface",
      "outputs": [
        {
          "internalType": "bool",
          "name": "",
          "type": "bool"
        }
      ],
      "stateMutability": "view",
      "type": "function",
      "constant": true
    }
  ],
  "bytecode": "0x60806040523480156200001157600080fd5b506040518060400160405280600581526020017f436f6c6f720000000000000000000000000000000000000000000000000000008152506040518060400160405280600581526020017f434f4c4f5200000000000000000000000000000000000000000000000000000081525081600090805190602001906200009692919062000b77565b508051620000ac90600190602084019062000b77565b5050600a805460ff1916905550620000c433620002af565b6040518060600160405280602f815260200162003263602f91398051620000f491600b9160209091019062000b77565b506200017360006040518060400160405280600581526020017f426c61636b0000000000000000000000000000000000000000000000000000008152506040518060400160405280600e81526020017f426c61636b65737420626c61636b0000000000000000000000000000000000008152506200030960201b60201c565b620001f1600f6040518060400160405280600581526020017f57686974650000000000000000000000000000000000000000000000000000008152506040518060400160405280600d81526020017f57686974657374207768697465000000000000000000000000000000000000008152506200030960201b60201c565b6200024d60cb6040518060400160405280600a81526020017f496e6469616e52656431000000000000000000000000000000000000000000008152506040518060600160405280602a8152602001620032bf602a913962000309565b620002a960296040518060400160405280600c81526020017f537072696e67477265656e3300000000000000000000000000000000000000008152506040518060600160405280602d815260200162003292602d913962000309565b62000dfb565b600a80546001600160a01b03838116610100818102610100600160a81b031985161790945560405193909204169182907f8be0079c531659141344cd1fd0a4f28419497f9722a3daafe3b4186f6b6457e090600090a35050565b604080518082018252838152602080820184905260ff86166000818152600c835293909320825180519192620003459284929091019062000b77565b50602082810151805162000360926001850192019062000b77565b506200037191503390508262000377565b50505050565b620003998282604051806020016040528060008152506200039d60201b60201c565b5050565b620003a983836200043e565b620003b86000848484620005c8565b62000439576040517f08c379a000000000000000000000000000000000000000000000000000000000815260206004820152603260248201526000805160206200324383398151915260448201527f63656976657220696d706c656d656e746572000000000000000000000000000060648201526084015b60405180910390fd5b505050565b6001600160a01b038216620004b0576040517f08c379a000000000000000000000000000000000000000000000000000000000815260206004820181905260248201527f4552433732313a206d696e7420746f20746865207a65726f2061646472657373604482015260640162000430565b6000818152600260205260409020546001600160a01b03161562000531576040517f08c379a000000000000000000000000000000000000000000000000000000000815260206004820152601c60248201527f4552433732313a20746f6b656e20616c7265616479206d696e74656400000000604482015260640162000430565b6200053f60008383620007a0565b6001600160a01b03821660009081526003602052604081208054600192906200056a90849062000ce3565b909155505060008181526002602052604080822080546001600160a01b0319166001600160a01b03861690811790915590518392907fddf252ad1be2c89b69c2b068fc378daa952ba7f163c4a11628f55a4df523b3ef908290a45050565b6000620005e9846001600160a01b03166200082760201b620010941760201c565b1562000794576040517f150b7a020000000000000000000000000000000000000000000000000000000081526001600160a01b0385169063150b7a02906200063c90339089908890889060040162000c68565b602060405180830381600087803b1580156200065757600080fd5b505af19250505080156200068a575060408051601f3d908101601f19168201909252620006879181019062000c1d565b60015b62000748573d808015620006bb576040519150601f19603f3d011682016040523d82523d6000602084013e620006c0565b606091505b50805162000740576040517f08c379a000000000000000000000000000000000000000000000000000000000815260206004820152603260248201526000805160206200324383398151915260448201527f63656976657220696d706c656d656e7465720000000000000000000000000000606482015260840162000430565b805181602001fd5b7fffffffff00000000000000000000000000000000000000000000000000000000167f150b7a020000000000000000000000000000000000000000000000000000000014905062000798565b5060015b949350505050565b600a5460ff16156200080f576040517f08c379a000000000000000000000000000000000000000000000000000000000815260206004820152601060248201527f5061757361626c653a2070617573656400000000000000000000000000000000604482015260640162000430565b620004398383836200082d60201b6200109a1760201c565b3b151590565b620008458383836200043960201b620008f41760201c565b6001600160a01b038316620008a3576200089d81600880546000838152600960205260408120829055600182018355919091527ff3f7a9fe364faab93b216da50a3214154f22a0a2b415b23a84c8169e8b636ee30155565b620008c9565b816001600160a01b0316836001600160a01b031614620008c957620008c9838262000909565b6001600160a01b038216620008e3576200043981620009b6565b826001600160a01b0316826001600160a01b031614620004395762000439828262000a70565b60006001620009238462000ac160201b62000be11760201c565b6200092f919062000cfe565b60008381526007602052604090205490915080821462000983576001600160a01b03841660009081526006602090815260408083208584528252808320548484528184208190558352600790915290208190555b5060009182526007602090815260408084208490556001600160a01b039094168352600681528383209183525290812055565b600854600090620009ca9060019062000cfe565b60008381526009602052604081205460088054939450909284908110620009f557620009f562000dcc565b90600052602060002001549050806008838154811062000a195762000a1962000dcc565b600091825260208083209091019290925582815260099091526040808220849055858252812055600880548062000a545762000a5462000d9d565b6001900381819060005260206000200160009055905550505050565b600062000a888362000ac160201b62000be11760201c565b6001600160a01b039093166000908152600660209081526040808320868452825280832085905593825260079052919091209190915550565b60006001600160a01b03821662000b5b576040517f08c379a000000000000000000000000000000000000000000000000000000000815260206004820152602a60248201527f4552433732313a2062616c616e636520717565727920666f7220746865207a6560448201527f726f206164647265737300000000000000000000000000000000000000000000606482015260840162000430565b506001600160a01b031660009081526003602052604090205490565b82805462000b859062000d18565b90600052602060002090601f01602090048101928262000ba9576000855562000bf4565b82601f1062000bc457805160ff191683800117855562000bf4565b8280016001018555821562000bf4579182015b8281111562000bf457825182559160200191906001019062000bd7565b5062000c0292915062000c06565b5090565b5b8082111562000c02576000815560010162000c07565b60006020828403121562000c3057600080fd5b81517fffffffff000000000000000000000000000000000000000000000000000000008116811462000c6157600080fd5b9392505050565b600060018060a01b038087168352602081871681850152856040850152608060608501528451915081608085015260005b8281101562000cb75785810182015185820160a00152810162000c99565b8281111562000cca57600060a084870101525b5050601f01601f19169190910160a00195945050505050565b6000821982111562000cf95762000cf962000d6e565b500190565b60008282101562000d135762000d1362000d6e565b500390565b600181811c9082168062000d2d57607f821691505b6020821081141562000d68577f4e487b7100000000000000000000000000000000000000000000000000000000600052602260045260246000fd5b50919050565b7f4e487b7100000000000000000000000000000000000000000000000000000000600052601160045260246000fd5b7f4e487b7100000000000000000000000000000000000000000000000000000000600052603160045260246000fd5b7f4e487b7100000000000000000000000000000000000000000000000000000000600052603260045260246000fd5b6124388062000e0b6000396000f3fe6080604052600436106101815760003560e01c80635c975abb116100d157806395d89b411161008a578063c87b56dd11610064578063c87b56dd14610457578063de4c405c14610477578063e985e9c51461048a578063f2fde38b146104d357600080fd5b806395d89b4114610402578063a22cb46514610417578063b88d4fde1461043757600080fd5b80635c975abb1461035d5780636352211e1461037557806370a0823114610395578063715018a6146103b55780638456cb59146103ca5780638da5cb5b146103df57600080fd5b806323b872dd1161013e57806342842e0e1161011857806342842e0e146102dd57806342966c68146102fd5780634f6ccce71461031d57806355f804b31461033d57600080fd5b806323b872dd146102885780632f745c59146102a85780633f4ba83a146102c857600080fd5b80630178fe3f1461018657806301ffc9a7146101bd57806306fdde03146101ed578063081812fc1461020f578063095ea7b31461024757806318160ddd14610269575b600080fd5b34801561019257600080fd5b506101a66101a1366004612028565b6104f3565b6040516101b4929190612175565b60405180910390f35b3480156101c957600080fd5b506101dd6101d8366004611fa5565b6106ab565b60405190151581526020016101b4565b3480156101f957600080fd5b506102026106bc565b6040516101b49190612162565b34801561021b57600080fd5b5061022f61022a366004612028565b61074e565b6040516001600160a01b0390911681526020016101b4565b34801561025357600080fd5b50610267610262366004611f7b565b6107e3565b005b34801561027557600080fd5b506008545b6040519081526020016101b4565b34801561029457600080fd5b506102676102a3366004611e87565b6108f9565b3480156102b457600080fd5b5061027a6102c3366004611f7b565b61092b565b3480156102d457600080fd5b506102676109c1565b3480156102e957600080fd5b506102676102f8366004611e87565b6109fb565b34801561030957600080fd5b50610267610318366004612028565b610a16565b34801561032957600080fd5b5061027a610338366004612028565b610a90565b34801561034957600080fd5b50610267610358366004611fdf565b610b23565b34801561036957600080fd5b50600a5460ff166101dd565b34801561038157600080fd5b5061022f610390366004612028565b610b6a565b3480156103a157600080fd5b5061027a6103b0366004611e39565b610be1565b3480156103c157600080fd5b50610267610c68565b3480156103d657600080fd5b50610267610ca2565b3480156103eb57600080fd5b50600a5461010090046001600160a01b031661022f565b34801561040e57600080fd5b50610202610cda565b34801561042357600080fd5b50610267610432366004611f3f565b610ce9565b34801561044357600080fd5b50610267610452366004611ec3565b610dae565b34801561046357600080fd5b50610202610472366004612028565b610de6565b610267610485366004612041565b610ec1565b34801561049657600080fd5b506101dd6104a5366004611e54565b6001600160a01b03918216600090815260056020908152604080832093909416825291909152205460ff1690565b3480156104df57600080fd5b506102676104ee366004611e39565b610ff6565b606080610517836000908152600260205260409020546001600160a01b0316151590565b61055b5760405162461bcd60e51b815260206004820152601060248201526f1d1bdad95b881b9bdd081b5a5b9d195960821b60448201526064015b60405180910390fd5b6000838152600c6020526040808220815180830190925280548290829061058190612314565b80601f01602080910402602001604051908101604052809291908181526020018280546105ad90612314565b80156105fa5780601f106105cf576101008083540402835291602001916105fa565b820191906000526020600020905b8154815290600101906020018083116105dd57829003601f168201915b5050505050815260200160018201805461061390612314565b80601f016020809104026020016040519081016040528092919081815260200182805461063f90612314565b801561068c5780601f106106615761010080835404028352916020019161068c565b820191906000526020600020905b81548152906001019060200180831161066f57829003601f168201915b5050505050815250509050806000015192508060200151915050915091565b60006106b682611152565b92915050565b6060600080546106cb90612314565b80601f01602080910402602001604051908101604052809291908181526020018280546106f790612314565b80156107445780601f1061071957610100808354040283529160200191610744565b820191906000526020600020905b81548152906001019060200180831161072757829003601f168201915b5050505050905090565b6000818152600260205260408120546001600160a01b03166107c75760405162461bcd60e51b815260206004820152602c60248201527f4552433732313a20617070726f76656420717565727920666f72206e6f6e657860448201526b34b9ba32b73a103a37b5b2b760a11b6064820152608401610552565b506000908152600460205260409020546001600160a01b031690565b60006107ee82610b6a565b9050806001600160a01b0316836001600160a01b0316141561085c5760405162461bcd60e51b815260206004820152602160248201527f4552433732313a20617070726f76616c20746f2063757272656e74206f776e656044820152603960f91b6064820152608401610552565b336001600160a01b0382161480610878575061087881336104a5565b6108ea5760405162461bcd60e51b815260206004820152603860248201527f4552433732313a20617070726f76652063616c6c6572206973206e6f74206f7760448201527f6e6572206e6f7220617070726f76656420666f7220616c6c00000000000000006064820152608401610552565b6108f48383611177565b505050565b610904335b826111e5565b6109205760405162461bcd60e51b815260040161055290612254565b6108f48383836112dc565b600061093683610be1565b82106109985760405162461bcd60e51b815260206004820152602b60248201527f455243373231456e756d657261626c653a206f776e657220696e646578206f7560448201526a74206f6620626f756e647360a81b6064820152608401610552565b506001600160a01b03919091166000908152600660209081526040808320938352929052205490565b600a546001600160a01b036101009091041633146109f15760405162461bcd60e51b81526004016105529061221f565b6109f9611487565b565b6108f483838360405180602001604052806000815250610dae565b610a1f336108fe565b610a845760405162461bcd60e51b815260206004820152603060248201527f4552433732314275726e61626c653a2063616c6c6572206973206e6f74206f7760448201526f1b995c881b9bdc88185c1c1c9bdd995960821b6064820152608401610552565b610a8d8161151a565b50565b6000610a9b60085490565b8210610afe5760405162461bcd60e51b815260206004820152602c60248201527f455243373231456e756d657261626c653a20676c6f62616c20696e646578206f60448201526b7574206f6620626f756e647360a01b6064820152608401610552565b60088281548110610b1157610b116123c0565b90600052602060002001549050919050565b600a546001600160a01b03610100909104163314610b535760405162461bcd60e51b81526004016105529061221f565b8051610b6690600b906020840190611cc5565b5050565b6000818152600260205260408120546001600160a01b0316806106b65760405162461bcd60e51b815260206004820152602960248201527f4552433732313a206f776e657220717565727920666f72206e6f6e657869737460448201526832b73a103a37b5b2b760b91b6064820152608401610552565b60006001600160a01b038216610c4c5760405162461bcd60e51b815260206004820152602a60248201527f4552433732313a2062616c616e636520717565727920666f7220746865207a65604482015269726f206164647265737360b01b6064820152608401610552565b506001600160a01b031660009081526003602052604090205490565b600a546001600160a01b03610100909104163314610c985760405162461bcd60e51b81526004016105529061221f565b6109f960006115c1565b600a546001600160a01b03610100909104163314610cd25760405162461bcd60e51b81526004016105529061221f565b6109f961161b565b6060600180546106cb90612314565b6001600160a01b038216331415610d425760405162461bcd60e51b815260206004820152601960248201527f4552433732313a20617070726f766520746f2063616c6c6572000000000000006044820152606401610552565b3360008181526005602090815260408083206001600160a01b03871680855290835292819020805460ff191686151590811790915590519081529192917f17307eab39ab6107e8899845ad3d59bd9653f200f220920489ca2b5937696c31910160405180910390a35050565b610db833836111e5565b610dd45760405162461bcd60e51b815260040161055290612254565b610de084848484611673565b50505050565b6000818152600260205260409020546060906001600160a01b0316610e655760405162461bcd60e51b815260206004820152602f60248201527f4552433732314d657461646174613a2055524920717565727920666f72206e6f60448201526e3732bc34b9ba32b73a103a37b5b2b760891b6064820152608401610552565b6000610e6f6116a6565b90506000815111610e8f5760405180602001604052806000815250610eba565b80610e99846116b5565b604051602001610eaa9291906120f6565b6040516020818303038152906040525b9392505050565b600a5460ff1615610ee45760405162461bcd60e51b8152600401610552906121f5565b34662386f26fc1000014610f3a5760405162461bcd60e51b815260206004820152601f60248201527f636c61696d696e67206120636f6c6f7220636f73747320302e303120455448006044820152606401610552565b610fae8585858080601f01602080910402602001604051908101604052809392919081815260200183838082843760009201919091525050604080516020601f890181900481028201810190925287815292508791508690819084018382808284376000920191909152506117b392505050565b600a546040516101009091046001600160a01b031690600090662386f26fc100009082818181858883f19350505050158015610fee573d6000803e3d6000fd5b505050505050565b600a546001600160a01b036101009091041633146110265760405162461bcd60e51b81526004016105529061221f565b6001600160a01b03811661108b5760405162461bcd60e51b815260206004820152602660248201527f4f776e61626c653a206e6577206f776e657220697320746865207a65726f206160448201526564647265737360d01b6064820152608401610552565b610a8d816115c1565b3b151590565b6001600160a01b0383166110f5576110f081600880546000838152600960205260408120829055600182018355919091527ff3f7a9fe364faab93b216da50a3214154f22a0a2b415b23a84c8169e8b636ee30155565b611118565b816001600160a01b0316836001600160a01b031614611118576111188382611814565b6001600160a01b03821661112f576108f4816118b1565b826001600160a01b0316826001600160a01b0316146108f4576108f48282611960565b60006001600160e01b0319821663780e9d6360e01b14806106b657506106b6826119a4565b600081815260046020526040902080546001600160a01b0319166001600160a01b03841690811790915581906111ac82610b6a565b6001600160a01b03167f8c5be1e5ebec7d5bd14f71427d1e84f3dd0314c0f7b2291e5b200ac8c7c3b92560405160405180910390a45050565b6000818152600260205260408120546001600160a01b031661125e5760405162461bcd60e51b815260206004820152602c60248201527f4552433732313a206f70657261746f7220717565727920666f72206e6f6e657860448201526b34b9ba32b73a103a37b5b2b760a11b6064820152608401610552565b600061126983610b6a565b9050806001600160a01b0316846001600160a01b031614806112a45750836001600160a01b03166112998461074e565b6001600160a01b0316145b806112d457506001600160a01b0380821660009081526005602090815260408083209388168352929052205460ff165b949350505050565b826001600160a01b03166112ef82610b6a565b6001600160a01b0316146113575760405162461bcd60e51b815260206004820152602960248201527f4552433732313a207472616e73666572206f6620746f6b656e2074686174206960448201526839903737ba1037bbb760b91b6064820152608401610552565b6001600160a01b0382166113b95760405162461bcd60e51b8152602060048201526024808201527f4552433732313a207472616e7366657220746f20746865207a65726f206164646044820152637265737360e01b6064820152608401610552565b6113c48383836119f4565b6113cf600082611177565b6001600160a01b03831660009081526003602052604081208054600192906113f89084906122d1565b90915550506001600160a01b03821660009081526003602052604081208054600192906114269084906122a5565b909155505060008181526002602052604080822080546001600160a01b0319166001600160a01b0386811691821790925591518493918716917fddf252ad1be2c89b69c2b068fc378daa952ba7f163c4a11628f55a4df523b3ef91a4505050565b600a5460ff166114d05760405162461bcd60e51b815260206004820152601460248201527314185d5cd8589b194e881b9bdd081c185d5cd95960621b6044820152606401610552565b600a805460ff191690557f5db9ee0a495bf2e6ff9c91a7834c1ba4fdd244a5e8aa4e537bd38aeae4b073aa335b6040516001600160a01b03909116815260200160405180910390a1565b600061152582610b6a565b9050611533816000846119f4565b61153e600083611177565b6001600160a01b03811660009081526003602052604081208054600192906115679084906122d1565b909155505060008281526002602052604080822080546001600160a01b0319169055518391906001600160a01b038416907fddf252ad1be2c89b69c2b068fc378daa952ba7f163c4a11628f55a4df523b3ef908390a45050565b600a80546001600160a01b03838116610100818102610100600160a81b031985161790945560405193909204169182907f8be0079c531659141344cd1fd0a4f28419497f9722a3daafe3b4186f6b6457e090600090a35050565b600a5460ff161561163e5760405162461bcd60e51b8152600401610552906121f5565b600a805460ff191660011790557f62e78cea01bee320cd4e420270b5ea74000d11b0c9f74754ebdbfc544b05a2586114fd3390565b61167e8484846112dc565b61168a84848484611a22565b610de05760405162461bcd60e51b8152600401610552906121a3565b6060600b80546106cb90612314565b6060816116d95750506040805180820190915260018152600360fc1b602082015290565b8160005b811561170357806116ed8161234f565b91506116fc9050600a836122bd565b91506116dd565b60008167ffffffffffffffff81111561171e5761171e6123d6565b6040519080825280601f01601f191660200182016040528015611748576020820181803683370190505b5090505b84156112d45761175d6001836122d1565b915061176a600a8661236a565b6117759060306122a5565b60f81b81838151811061178a5761178a6123c0565b60200101906001600160f81b031916908160001a9053506117ac600a866122bd565b945061174c565b604080518082018252838152602080820184905260ff86166000818152600c8352939093208251805191926117ed92849290910190611cc5565b5060208281015180516118069260018501920190611cc5565b50905050610de03382611b2f565b6000600161182184610be1565b61182b91906122d1565b60008381526007602052604090205490915080821461187e576001600160a01b03841660009081526006602090815260408083208584528252808320548484528184208190558352600790915290208190555b5060009182526007602090815260408084208490556001600160a01b039094168352600681528383209183525290812055565b6008546000906118c3906001906122d1565b600083815260096020526040812054600880549394509092849081106118eb576118eb6123c0565b90600052602060002001549050806008838154811061190c5761190c6123c0565b6000918252602080832090910192909255828152600990915260408082208490558582528120556008805480611944576119446123aa565b6001900381819060005260206000200160009055905550505050565b600061196b83610be1565b6001600160a01b039093166000908152600660209081526040808320868452825280832085905593825260079052919091209190915550565b60006001600160e01b031982166380ac58cd60e01b14806119d557506001600160e01b03198216635b5e139f60e01b145b806106b657506301ffc9a760e01b6001600160e01b03198316146106b6565b600a5460ff1615611a175760405162461bcd60e51b8152600401610552906121f5565b6108f483838361109a565b60006001600160a01b0384163b15611b2457604051630a85bd0160e11b81526001600160a01b0385169063150b7a0290611a66903390899088908890600401612125565b602060405180830381600087803b158015611a8057600080fd5b505af1925050508015611ab0575060408051601f3d908101601f19168201909252611aad91810190611fc2565b60015b611b0a573d808015611ade576040519150601f19603f3d011682016040523d82523d6000602084013e611ae3565b606091505b508051611b025760405162461bcd60e51b8152600401610552906121a3565b805181602001fd5b6001600160e01b031916630a85bd0160e11b1490506112d4565b506001949350505050565b610b66828260405180602001604052806000815250611b4e8383611b77565b611b5b6000848484611a22565b6108f45760405162461bcd60e51b8152600401610552906121a3565b6001600160a01b038216611bcd5760405162461bcd60e51b815260206004820181905260248201527f4552433732313a206d696e7420746f20746865207a65726f20616464726573736044820152606401610552565b6000818152600260205260409020546001600160a01b031615611c325760405162461bcd60e51b815260206004820152601c60248201527f4552433732313a20746f6b656e20616c7265616479206d696e746564000000006044820152606401610552565b611c3e600083836119f4565b6001600160a01b0382166000908152600360205260408120805460019290611c679084906122a5565b909155505060008181526002602052604080822080546001600160a01b0319166001600160a01b03861690811790915590518392907fddf252ad1be2c89b69c2b068fc378daa952ba7f163c4a11628f55a4df523b3ef908290a45050565b828054611cd190612314565b90600052602060002090601f016020900481019282611cf35760008555611d39565b82601f10611d0c57805160ff1916838001178555611d39565b82800160010185558215611d39579182015b82811115611d39578251825591602001919060010190611d1e565b50611d45929150611d49565b5090565b5b80821115611d455760008155600101611d4a565b600067ffffffffffffffff80841115611d7957611d796123d6565b604051601f8501601f19908116603f01168101908282118183101715611da157611da16123d6565b81604052809350858152868686011115611dba57600080fd5b858560208301376000602087830101525050509392505050565b80356001600160a01b0381168114611deb57600080fd5b919050565b60008083601f840112611e0257600080fd5b50813567ffffffffffffffff811115611e1a57600080fd5b602083019150836020828501011115611e3257600080fd5b9250929050565b600060208284031215611e4b57600080fd5b610eba82611dd4565b60008060408385031215611e6757600080fd5b611e7083611dd4565b9150611e7e60208401611dd4565b90509250929050565b600080600060608486031215611e9c57600080fd5b611ea584611dd4565b9250611eb360208501611dd4565b9150604084013590509250925092565b60008060008060808587031215611ed957600080fd5b611ee285611dd4565b9350611ef060208601611dd4565b925060408501359150606085013567ffffffffffffffff811115611f1357600080fd5b8501601f81018713611f2457600080fd5b611f3387823560208401611d5e565b91505092959194509250565b60008060408385031215611f5257600080fd5b611f5b83611dd4565b915060208301358015158114611f7057600080fd5b809150509250929050565b60008060408385031215611f8e57600080fd5b611f9783611dd4565b946020939093013593505050565b600060208284031215611fb757600080fd5b8135610eba816123ec565b600060208284031215611fd457600080fd5b8151610eba816123ec565b600060208284031215611ff157600080fd5b813567ffffffffffffffff81111561200857600080fd5b8201601f8101841361201957600080fd5b6112d484823560208401611d5e565b60006020828403121561203a57600080fd5b5035919050565b60008060008060006060868803121561205957600080fd5b853560ff8116811461206a57600080fd5b9450602086013567ffffffffffffffff8082111561208757600080fd5b61209389838a01611df0565b909650945060408801359150808211156120ac57600080fd5b506120b988828901611df0565b969995985093965092949392505050565b600081518084526120e28160208601602086016122e8565b601f01601f19169290920160200192915050565b600083516121088184602088016122e8565b83519083019061211c8183602088016122e8565b01949350505050565b6001600160a01b0385811682528416602082015260408101839052608060608201819052600090612158908301846120ca565b9695505050505050565b602081526000610eba60208301846120ca565b60408152600061218860408301856120ca565b828103602084015261219a81856120ca565b95945050505050565b60208082526032908201527f4552433732313a207472616e7366657220746f206e6f6e20455243373231526560408201527131b2b4bb32b91034b6b83632b6b2b73a32b960711b606082015260800190565b60208082526010908201526f14185d5cd8589b194e881c185d5cd95960821b604082015260600190565b6020808252818101527f4f776e61626c653a2063616c6c6572206973206e6f7420746865206f776e6572604082015260600190565b60208082526031908201527f4552433732313a207472616e736665722063616c6c6572206973206e6f74206f6040820152701ddb995c881b9bdc88185c1c1c9bdd9959607a1b606082015260800190565b600082198211156122b8576122b861237e565b500190565b6000826122cc576122cc612394565b500490565b6000828210156122e3576122e361237e565b500390565b60005b838110156123035781810151838201526020016122eb565b83811115610de05750506000910152565b600181811c9082168061232857607f821691505b6020821081141561234957634e487b7160e01b600052602260045260246000fd5b50919050565b60006000198214156123635761236361237e565b5060010190565b60008261237957612379612394565b500690565b634e487b7160e01b600052601160045260246000fd5b634e487b7160e01b600052601260045260246000fd5b634e487b7160e01b600052603160045260246000fd5b634e487b7160e01b600052603260045260246000fd5b634e487b7160e01b600052604160045260246000fd5b6001600160e01b031981168114610a8d57600080fdfea264697066735822122000e0a06775e6e0894fb1b2e938d9ceca4b4c741030c602d2d6ed22e6c0617bb764736f6c634300080600334552433732313a207472616e7366657220746f206e6f6e20455243373231526568747470733a2f2f636f6c6f722d6e66742d736765726f6769612e6865726f6b756170702e636f6d2f746f6b656e2f537072696e6720736f20677265656e20796f752063616e20616c6d6f737420736d656c6c2069742120f09f8cb153747261696768742066726f6d2074686520646570746873206f6620496e64696120f09f87aef09f87b3",
  "immutableReferences": {},
  "source": "// SPDX-License-Identifier: MIT\npragma solidity >=0.4.22 <0.9.0;\n\nimport \"@openzeppelin/contracts/token/ERC721/ERC721.sol\";\nimport \"@openzeppelin/contracts/token/ERC721/extensions/ERC721Enumerable.sol\";\nimport \"@openzeppelin/contracts/security/Pausable.sol\";\nimport \"@openzeppelin/contracts/access/Ownable.sol\";\nimport \"@openzeppelin/contracts/token/ERC721/extensions/ERC721Burnable.sol\";\n\ncontract Color is ERC721, ERC721Enumerable, Pausable, Ownable, ERC721Burnable {\n\n    // --- Contract variables ----\n\n    // base URI for metadata JSON\n    string _baseMetadataURI;\n\n    // contents of the token\n    struct Metadata {\n        string colorName;\n        string title;\n    }\n\n    // global map from token id to token metadata\n    mapping(uint256 => Metadata) id_to_color;\n\n    // --- Constructor ---\n\n    // set base URI and mint a few tokens for the owner's address\n    constructor() ERC721(\"Color\", \"COLOR\") {\n        _baseMetadataURI = \"https://color-nft-sgerogia.herokuapp.com/token/\";\n\n        mint(0, \"Black\", \"Blackest black\");\n        mint(15, \"White\", \"Whitest white\");\n        mint(203, \"IndianRed1\", unicode\"Straight from the depths of India \");\n        mint(41, \"SpringGreen3\", unicode\"Spring so green you can almost smell it! \");\n    }\n\n    // --- Metadata URI ---\n\n    // parent contract method override\n    function _baseURI() internal view override returns (string memory) {\n        return _baseMetadataURI;\n    }\n\n    // change the metadata base URI\n    //    mainly to facilitate testing in different environments\n    function setBaseURI(string memory baseURI) external onlyOwner {\n        _baseMetadataURI = baseURI;\n    }\n\n    // --- Minting, claiming and ownership ---\n\n    // private utility method\n    function mint(uint8 color, string memory colorName, string memory title) internal {\n        // use XTerm color as token id\n        uint256 tokenId = uint256(color);\n\n        id_to_color[tokenId] = Metadata(colorName, title);\n        _safeMint(msg.sender, tokenId);\n    }\n\n    // public method to claim a token\n    function claim(uint8 color, string calldata colorName, string calldata title) external whenNotPaused payable {\n        require(msg.value == 10000000 gwei, \"claiming a color costs 0.01 ETH\");\n\n        // TODO: Ensure that colorName matches the color according to https://jonasjacek.github.io/colors/\n\n        mint(color, colorName, title);\n        payable(owner()).transfer(10000000 gwei);\n    }\n\n    // get token metadata\n    function getData(uint256 tokenId) external view returns (string memory colorName, string memory title) {\n        require(_exists(tokenId), \"token not minted\");\n        Metadata memory colorMetadata = id_to_color[tokenId];\n        colorName = colorMetadata.colorName;\n        title = colorMetadata.title;\n    }\n\n    // --- From ERC721Enumerable.sol ---\n\n    // hook for additional actions before minting/transferring\n    // just calls the parent method\n    function _beforeTokenTransfer(address from, address to, uint256 tokenId)\n    internal\n    whenNotPaused\n    override(ERC721, ERC721Enumerable)\n    {\n        super._beforeTokenTransfer(from, to, tokenId);\n    }\n\n    // --- From Pausable.sol ---\n    // emergency switch off/on methods\n\n    function pause() public onlyOwner {\n        _pause();\n    }\n\n    function unpause() public onlyOwner {\n        _unpause();\n    }\n\n    // --- Other ---\n\n    // Ensures compatibility with marketplaces (e.g. OpenSea)\n    function supportsInterface(bytes4 interfaceId)\n    public\n    view\n    override(ERC721, ERC721Enumerable)\n    returns (bool)\n    {\n        return super.supportsInterface(interfaceId);\n    }\n\n}",
  "sourcePath": "/Users/sgerogia/src/github.com/sgerogia/Ethereum_training/HelloNft/contracts/Color.sol",
  "compiler": {
    "name": "solc",
    "version": "0.8.6+commit.11564f7e.Emscripten.clang"
  },
  "schemaVersion": "3.4.1",
  "updatedAt": "2021-08-06T21:12:27.472Z",
  "networkType": "ethereum",
  "devdoc": {
    "kind": "dev",
    "methods": {
      "approve(address,uint256)": {
        "details": "See {IERC721-approve}."
      },
      "balanceOf(address)": {
        "details": "See {IERC721-balanceOf}."
      },
      "burn(uint256)": {
        "details": "Burns `tokenId`. See {ERC721-_burn}. Requirements: - The caller must own `tokenId` or be an approved operator."
      },
      "getApproved(uint256)": {
        "details": "See {IERC721-getApproved}."
      },
      "isApprovedForAll(address,address)": {
        "details": "See {IERC721-isApprovedForAll}."
      },
      "name()": {
        "details": "See {IERC721Metadata-name}."
      },
      "owner()": {
        "details": "Returns the address of the current owner."
      },
      "ownerOf(uint256)": {
        "details": "See {IERC721-ownerOf}."
      },
      "paused()": {
        "details": "Returns true if the contract is paused, and false otherwise."
      },
      "renounceOwnership()": {
        "details": "Leaves the contract without owner. It will not be possible to call `onlyOwner` functions anymore. Can only be called by the current owner. NOTE: Renouncing ownership will leave the contract without an owner, thereby removing any functionality that is only available to the owner."
      },
      "safeTransferFrom(address,address,uint256)": {
        "details": "See {IERC721-safeTransferFrom}."
      },
      "safeTransferFrom(address,address,uint256,bytes)": {
        "details": "See {IERC721-safeTransferFrom}."
      },
      "setApprovalForAll(address,bool)": {
        "details": "See {IERC721-setApprovalForAll}."
      },
      "symbol()": {
        "details": "See {IERC721Metadata-symbol}."
      },
      "tokenByIndex(uint256)": {
        "details": "See {IERC721Enumerable-tokenByIndex}."
      },
      "tokenOfOwnerByIndex(address,uint256)": {
        "details": "See {IERC721Enumerable-tokenOfOwnerByIndex}."
      },
      "tokenURI(uint256)": {
        "details": "See {IERC721Metadata-tokenURI}."
      },
      "totalSupply()": {
        "details": "See {IERC721Enumerable-totalSupply}."
      },
      "transferFrom(address,address,uint256)": {
        "details": "See {IERC721-transferFrom}."
      },
      "transferOwnership(address)": {
        "details": "Transfers ownership of the contract to a new account (`newOwner`). Can only be called by the current owner."
      }
    },
    "version": 1
  },
  "userdoc": {
    "kind": "user",
    "methods": {},
    "version": 1
  }
}